:020000040000FA
:04000000CCEF02F04F
:020004000000FA
:0400080025EF00F0F0
:020018001100D5
:06003A00C86443322821D6
:100040001D19161412110F0E0D0CF2B429EC00F04C
:100050001100F294D0EC00F082AE120037EC00F008
:100060003CEC00F056EC00F08EEC00F0120082AA9E
:100070001200282A2A6812002CA0120027502D5C9A
:10008000D8A445EF00F047EF00F02D2A12002EB063
:1000900052EF00F02EA04EEF00F012008B882E6879
:1000A0002D6A12008B982E6A2D6A12005DEC00F00A
:1000B0006CEC00F07EEC00F012000BB01200092E88
:1000C0006BEF00F00A2E69EF00F00B681C6A6BEF13
:1000D00000F0FF0E096E120030B012000EB01200D8
:1000E0000C2E7DEF00F00D2E79EF00F00E687DEF05
:1000F00000F0FF0E0C6E7DEF00F012000BA012005E
:100100001A2E8DEF00F01B2E89EF00F01D688DEF89
:1001100000F0FF0E1A6E8DEF00F0120024B097EF82
:1001200000F025A01200960E206E24681200202EEA
:100130009DEF00F0246A256812001200F28EF28C06
:100140001200F29EF29C1200938093829384938615
:100150009388938A948C948E948A92969298929A89
:1001600094909492949494969498956A8996899888
:10017000899A8B908B928B948B968B988C681200BB
:10018000D09EF28EF28CF28AF18E1200D59ED59C12
:10019000D59AD598D586D0EC00F0D5EC00F01200B9
:1001A000FC0ED76E180ED66E1200D58E1200D59E9C
:1001B000120025A012008B8072EC01F08AEC01F095
:1001C0008B9097EC01F02468256A1200130E276EBD
:1001D0002C681200110E276E2C6812000F0E276E6D
:1001E0002C6812000E0E276E2C6812000C0E276E63
:1001F0002C6812000B0E276E2C6812000A0E276E58
:100200002C681200F76A390EF66E0650F6260800C2
:10021000F5CF22F01200899A82BC120081503F0B68
:10022000EE6E062A898A7AEC01F01200EF50046E15
:10023000056E3C0B0440046E0440016E27EC01F097
:10024000836E0550030B036E63EC01F012000F0E7A
:100250000114016E000E015CD8B44EEF01F0010EE6
:10026000015CD8B451EF01F0020E015CD8B454EF38
:1002700001F0030E015CD8B457EF01F0040E015CED
:10028000D8B45AEF01F0050E015CD8B45DEF01F06F
:10029000060E015CD8B460EF01F01200820E836E8E
:1002A0001200CF0E836E1200910E836E1200850E27
:1002B000836E1200CC0E836E1200A40E836E1200A9
:1002C000A00E836E120003B08B8403A08B9403B244
:1002D0008B8203A28B9212001F0E086E082E6EEF07
:1002E00001F01200320E236E6CEC01F0232E74EF3D
:1002F00001F01200640E0F6E6CEC01F00F2E7CEF1B
:1003000001F01200110E206E7AEC01F0202E84EF25
:1003100001F012002BC026F022C021F06CEC01F09D
:10032000212E8EEF01F0262E8CEF01F012002B50C3
:10033000065C266E22C021F06CEC01F0212E8EEFBF
:1003400001F0262E9AEF01F0120029B0B5EC01F071
:1003500082BA120028C01FF02A6A296A286A8B868E
:100360006CEC01F08B96296812002AA0B4EF01F022
:100370001200040E1F5CD8B4DEEF01F0080E1F5C03
:10038000D8B4E4EF01F00C0E1F5CD8B4EAEF01F032
:10039000100E1F5CD8B4F0EF01F0140E1F5CD8B43F
:1003A000F6EF01F0180E1F5CD8B4FCEF01F01A0E46
:1003B0001F5CD8B402EF02F008EF02F0E6EC00F0A8
:1003C000000E026E08EF02F0EAEC00F0010E026E81
:1003D00008EF02F0EEEC00F0020E026E08EF02F001
:1003E000F2EC00F0030E026E08EF02F0F6EC00F003
:1003F000040E026E08EF02F0FAEC00F0050E026E39
:1004000008EF02F0FEEC00F0060E026E08EF02F0BC
:1004100012000EB075EF02F02FA01AEF02F00BB031
:1004200022EF02F00250015CD8B419EF02F053EC55
:1004300002F0120030B00FEF02F059EC02F02F681A
:1004400019EF02F030681CB04DEF02F01C681E6A14
:1004500089988996010E035CD8B43BEF02F0020E36
:10046000035CD8B441EF02F0030E035CD8B447EF4D
:1004700002F019EF02F0270E1B6E100E1A6E19EF24
:1004800002F04E0E1B6E200E1A6E19EF02F0750E62
:100490001B6E300E1A6E19EF02F00250015CD8A4E8
:1004A0001E6819EF02F0130E0A6E880E096E0B6AB1
:1004B0001200750E0D6E300E0C6E0E6A12001DA02D
:1004C00012001EA070EF02F075EF02F01E6A1C6AA7
:1004D0001D6A53EC02F059EC02F0072AE92A1200D7
:1004E000898889962B2A66EF02F08998898666EFBB
:1004F00002F0066A016A1200076A276A1F682D6AFD
:100500002E6A296A2A6A2C6A02681C6A1D6A1E6A97
:100510002B6A246A2568226A306A2F6A53EC02F03B
:1005200059EC02F01200010EEA6E000EE96E1200A4
:100530008B8072EC01F08B9082EC01F072EC01F098
:100540007AEC01F07AEC01F012000750065CD8B4A6
:10055000C3EF02F016EC01F0A5EC01F0B9EC01F0EC
:1005600009EC02F05FEC02F0120082AE12007CECAB
:1005700002F093EC02F002EC01F0D9EC00F0A5ECF3
:1005800002F0BDEF02F0D9EC00F02C6AFD0E836E94
:100590008B928B94C3EF02F0A4EC00F0C0EC00F05F
:1005A000C6EC00F079EC02F093EC02F00BEC01F0F9
:0C05B00098EC02F0B5EC02F0D6EF02F07F
:020000040030CA
:0100010006F8
:010003001EDE
:010005008179
:00000001FF
